{
  "transactions": [
    {
      "hash": "0xa18cac8623526d8b4081ffe23d278fae1f43c228d8a099aea86de2fbe3f307bb",
      "transactionType": "CALL",
      "contractName": null,
      "contractAddress": "0x8103b0a8a00be2ddc778e6e7eaa21791cd364625",
      "function": "createSubscription()",
      "arguments": [],
      "transaction": {
        "from": "0x6b748671f2f3b1d264f554f87b64227e0ac142ec",
        "to": "0x8103b0a8a00be2ddc778e6e7eaa21791cd364625",
        "gas": "0x1558c",
        "value": "0x0",
        "input": "0xa21a23e4",
        "nonce": "0x32",
        "chainId": "0xaa36a7"
      },
      "additionalContracts": [],
      "isFixedGasLimit": false
    },
    {
      "hash": "0x8a85fa74750adfcb4a64b3b80ec3d23b2bb5383f9e70e27e92470e325168ca10",
      "transactionType": "CALL",
      "contractName": "LinkToken",
      "contractAddress": "0x779877a7b0d9e8603169ddbd7836e478b4624789",
      "function": "transferAndCall(address,uint256,bytes)",
      "arguments": [
        "0x8103B0A8A00be2DDC778e6e7eaa21791Cd364625",
        "3000000000000000000",
        "0x0000000000000000000000000000000000000000000000000000000000002e79"
      ],
      "transaction": {
        "from": "0x6b748671f2f3b1d264f554f87b64227e0ac142ec",
        "to": "0x779877a7b0d9e8603169ddbd7836e478b4624789",
        "gas": "0x1b43f",
        "value": "0x0",
        "input": "0x4000aea00000000000000000000000008103b0a8a00be2ddc778e6e7eaa21791cd36462500000000000000000000000000000000000000000000000029a2241af62c0000000000000000000000000000000000000000000000000000000000000000006000000000000000000000000000000000000000000000000000000000000000200000000000000000000000000000000000000000000000000000000000002e79",
        "nonce": "0x33",
        "chainId": "0xaa36a7"
      },
      "additionalContracts": [],
      "isFixedGasLimit": false
    },
    {
      "hash": "0x6ba19311ca9cfd8726edc3f094edc2d028cd7b22fa25f08720175c049d95a69e",
      "transactionType": "CREATE",
      "contractName": "Raffle",
      "contractAddress": "0xf6b8bb2d5117a03ed76b45f729fefd58e5532754",
      "function": null,
      "arguments": [
        "10000000000000000",
        "30",
        "0x8103B0A8A00be2DDC778e6e7eaa21791Cd364625",
        "0x474e34a077df58807dbe9c96d3c009b23b3c6d0cce433e59bbf5b34f823bc56c",
        "11897",
        "500000"
      ],
      "transaction": {
        "from": "0x6b748671f2f3b1d264f554f87b64227e0ac142ec",
        "gas": "0x171445",
        "value": "0x0",
        "input": "0x6101606040523480156200001257600080fd5b506040516200174238038062001742833981810160405281019062000038919062000294565b838073ffffffffffffffffffffffffffffffffffffffff1660808173ffffffffffffffffffffffffffffffffffffffff1681525050508560a081815250508460c081815250508373ffffffffffffffffffffffffffffffffffffffff1660e08173ffffffffffffffffffffffffffffffffffffffff16815250508261010081815250508167ffffffffffffffff166101208167ffffffffffffffff16815250508063ffffffff166101408163ffffffff16815250506000600260146101000a81548160ff0219169083600181111562000116576200011562000330565b5b0217905550426001819055505050505050506200035f565b600080fd5b6000819050919050565b620001488162000133565b81146200015457600080fd5b50565b60008151905062000168816200013d565b92915050565b600073ffffffffffffffffffffffffffffffffffffffff82169050919050565b60006200019b826200016e565b9050919050565b620001ad816200018e565b8114620001b957600080fd5b50565b600081519050620001cd81620001a2565b92915050565b6000819050919050565b620001e881620001d3565b8114620001f457600080fd5b50565b6000815190506200020881620001dd565b92915050565b600067ffffffffffffffff82169050919050565b6200022d816200020e565b81146200023957600080fd5b50565b6000815190506200024d8162000222565b92915050565b600063ffffffff82169050919050565b6200026e8162000253565b81146200027a57600080fd5b50565b6000815190506200028e8162000263565b92915050565b60008060008060008060c08789031215620002b457620002b36200012e565b5b6000620002c489828a0162000157565b9650506020620002d789828a0162000157565b9550506040620002ea89828a01620001bc565b9450506060620002fd89828a01620001f7565b93505060806200031089828a016200023c565b92505060a06200032389828a016200027d565b9150509295509295509295565b7f4e487b7100000000000000000000000000000000000000000000000000000000600052602160045260246000fd5b60805160a05160c05160e05161010051610120516101405161137a620003c860003960006105f6015260006105d3015260006105b201526000610576015260006106e1015260008181610248015261035101526000818161029101526102e5015261137a6000f3fe6080604052600436106100915760003560e01c80634585e33b116100595780634585e33b1461014a578063473f1ddc146101735780636e04ff0d1461019e578063c1c244e8146101dc578063e55ae4e81461020757610091565b806309bc33a7146100965780630ea3df38146100c1578063115cbaf5146100ec5780631fe543e3146101175780632cfcc53914610140575b600080fd5b3480156100a257600080fd5b506100ab610244565b6040516100b89190610b04565b60405180910390f35b3480156100cd57600080fd5b506100d661026c565b6040516100e39190610b04565b60405180910390f35b3480156100f857600080fd5b50610101610278565b60405161010e9190610b96565b60405180910390f35b34801561012357600080fd5b5061013e60048036038101906101399190610d4a565b61028f565b005b61014861034f565b005b34801561015657600080fd5b50610171600480360381019061016c9190610e01565b6104be565b005b34801561017f57600080fd5b506101886106af565b6040516101959190610e8f565b60405180910390f35b3480156101aa57600080fd5b506101c560048036038101906101c09190610f5f565b6106d9565b6040516101d3929190611042565b60405180910390f35b3480156101e857600080fd5b506101f16107c2565b6040516101fe9190610b04565b60405180910390f35b34801561021357600080fd5b5061022e60048036038101906102299190611072565b6107cc565b60405161023b9190610e8f565b60405180910390f35b60007f0000000000000000000000000000000000000000000000000000000000000000905090565b60008080549050905090565b6000600260149054906101000a900460ff16905090565b7f000000000000000000000000000000000000000000000000000000000000000073ffffffffffffffffffffffffffffffffffffffff163373ffffffffffffffffffffffffffffffffffffffff161461034157337f00000000000000000000000000000000000000000000000000000000000000006040517f1cf993f400000000000000000000000000000000000000000000000000000000815260040161033892919061109f565b60405180910390fd5b61034b8282610813565b5050565b7f00000000000000000000000000000000000000000000000000000000000000003410156103a9576040517f246b904d00000000000000000000000000000000000000000000000000000000815260040160405180910390fd5b600060018111156103bd576103bc610b1f565b5b600260149054906101000a900460ff1660018111156103df576103de610b1f565b5b14610416576040517fd24a271400000000000000000000000000000000000000000000000000000000815260040160405180910390fd5b6000339080600181540180825580915050600190039060005260206000200160009091909190916101000a81548173ffffffffffffffffffffffffffffffffffffffff021916908373ffffffffffffffffffffffffffffffffffffffff1602179055503373ffffffffffffffffffffffffffffffffffffffff167f819fbd717c9d0b421352c5116a644ca68ba176960c33f406f08d98a27370ca2760405160405180910390a2565b60006104d8604051806020016040528060008152506106d9565b509050806105475747600080549050600260149054906101000a900460ff16600181111561050957610508610b1f565b5b6040517f584327aa00000000000000000000000000000000000000000000000000000000815260040161053e939291906110c8565b60405180910390fd5b6001600260146101000a81548160ff0219169083600181111561056d5761056c610b1f565b5b021790555060007f000000000000000000000000000000000000000000000000000000000000000073ffffffffffffffffffffffffffffffffffffffff16635d3b1d307f00000000000000000000000000000000000000000000000000000000000000007f000000000000000000000000000000000000000000000000000000000000000060037f000000000000000000000000000000000000000000000000000000000000000060016040518663ffffffff1660e01b8152600401610637959493929190611177565b6020604051808303816000875af1158015610656573d6000803e3d6000fd5b505050506040513d601f19601f8201168201806040525081019061067a91906111df565b9050807fcd6e45c8998311cab7e9d4385596cac867e20a0587194b954fa3a731c93ce78b60405160405180910390a250505050565b6000600260009054906101000a900473ffffffffffffffffffffffffffffffffffffffff16905090565b6000606060007f00000000000000000000000000000000000000000000000000000000000000006001544261070e919061123b565b101590506000600260149054906101000a900460ff16600181111561073657610735610b1f565b5b6000600181111561074a57610749610b1f565b5b1490506000804711905060008060008054905011905083801561076a5750825b80156107735750815b801561077c5750805b9550856040518060400160405280600381526020017f30783000000000000000000000000000000000000000000000000000000000008152509550955050505050915091565b6000600154905090565b60008082815481106107e1576107e061126f565b5b9060005260206000200160009054906101000a900473ffffffffffffffffffffffffffffffffffffffff169050919050565b600080805490508260008151811061082e5761082d61126f565b5b602002602001015161084091906112cd565b905060008082815481106108575761085661126f565b5b9060005260206000200160009054906101000a900473ffffffffffffffffffffffffffffffffffffffff16905080600260006101000a81548173ffffffffffffffffffffffffffffffffffffffff021916908373ffffffffffffffffffffffffffffffffffffffff1602179055506000600260146101000a81548160ff021916908360018111156108eb576108ea610b1f565b5b0217905550600067ffffffffffffffff81111561090b5761090a610c07565b5b6040519080825280602002602001820160405280156109395781602001602082028036833780820191505090505b506000908051906020019061094f929190610a44565b50426001819055508073ffffffffffffffffffffffffffffffffffffffff167fb112587e57bfa970257f3d54fc52859c6300f6bd7a982462c320fed45c2530ed60405160405180910390a260008173ffffffffffffffffffffffffffffffffffffffff16476040516109c09061132f565b60006040518083038185875af1925050503d80600081146109fd576040519150601f19603f3d011682016040523d82523d6000602084013e610a02565b606091505b5050905080610a3d576040517fa1d04b3900000000000000000000000000000000000000000000000000000000815260040160405180910390fd5b5050505050565b828054828255906000526020600020908101928215610abd579160200282015b82811115610abc5782518260006101000a81548173ffffffffffffffffffffffffffffffffffffffff021916908373ffffffffffffffffffffffffffffffffffffffff16021790555091602001919060010190610a64565b5b509050610aca9190610ace565b5090565b5b80821115610ae7576000816000905550600101610acf565b5090565b6000819050919050565b610afe81610aeb565b82525050565b6000602082019050610b196000830184610af5565b92915050565b7f4e487b7100000000000000000000000000000000000000000000000000000000600052602160045260246000fd5b60028110610b5f57610b5e610b1f565b5b50565b6000819050610b7082610b4e565b919050565b6000610b8082610b62565b9050919050565b610b9081610b75565b82525050565b6000602082019050610bab6000830184610b87565b92915050565b6000604051905090565b600080fd5b600080fd5b610bce81610aeb565b8114610bd957600080fd5b50565b600081359050610beb81610bc5565b92915050565b600080fd5b6000601f19601f8301169050919050565b7f4e487b7100000000000000000000000000000000000000000000000000000000600052604160045260246000fd5b610c3f82610bf6565b810181811067ffffffffffffffff82111715610c5e57610c5d610c07565b5b80604052505050565b6000610c71610bb1565b9050610c7d8282610c36565b919050565b600067ffffffffffffffff821115610c9d57610c9c610c07565b5b602082029050602081019050919050565b600080fd5b6000610cc6610cc184610c82565b610c67565b90508083825260208201905060208402830185811115610ce957610ce8610cae565b5b835b81811015610d125780610cfe8882610bdc565b845260208401935050602081019050610ceb565b5050509392505050565b600082601f830112610d3157610d30610bf1565b5b8135610d41848260208601610cb3565b91505092915050565b60008060408385031215610d6157610d60610bbb565b5b6000610d6f85828601610bdc565b925050602083013567ffffffffffffffff811115610d9057610d8f610bc0565b5b610d9c85828601610d1c565b9150509250929050565b600080fd5b60008083601f840112610dc157610dc0610bf1565b5b8235905067ffffffffffffffff811115610dde57610ddd610da6565b5b602083019150836001820283011115610dfa57610df9610cae565b5b9250929050565b60008060208385031215610e1857610e17610bbb565b5b600083013567ffffffffffffffff811115610e3657610e35610bc0565b5b610e4285828601610dab565b92509250509250929050565b600073ffffffffffffffffffffffffffffffffffffffff82169050919050565b6000610e7982610e4e565b9050919050565b610e8981610e6e565b82525050565b6000602082019050610ea46000830184610e80565b92915050565b600080fd5b600067ffffffffffffffff821115610eca57610ec9610c07565b5b610ed382610bf6565b9050602081019050919050565b82818337600083830152505050565b6000610f02610efd84610eaf565b610c67565b905082815260208101848484011115610f1e57610f1d610eaa565b5b610f29848285610ee0565b509392505050565b600082601f830112610f4657610f45610bf1565b5b8135610f56848260208601610eef565b91505092915050565b600060208284031215610f7557610f74610bbb565b5b600082013567ffffffffffffffff811115610f9357610f92610bc0565b5b610f9f84828501610f31565b91505092915050565b60008115159050919050565b610fbd81610fa8565b82525050565b600081519050919050565b600082825260208201905092915050565b60005b83811015610ffd578082015181840152602081019050610fe2565b60008484015250505050565b600061101482610fc3565b61101e8185610fce565b935061102e818560208601610fdf565b61103781610bf6565b840191505092915050565b60006040820190506110576000830185610fb4565b81810360208301526110698184611009565b90509392505050565b60006020828403121561108857611087610bbb565b5b600061109684828501610bdc565b91505092915050565b60006040820190506110b46000830185610e80565b6110c16020830184610e80565b9392505050565b60006060820190506110dd6000830186610af5565b6110ea6020830185610af5565b6110f76040830184610af5565b949350505050565b6000819050919050565b611112816110ff565b82525050565b600067ffffffffffffffff82169050919050565b61113581611118565b82525050565b600061ffff82169050919050565b6111528161113b565b82525050565b600063ffffffff82169050919050565b61117181611158565b82525050565b600060a08201905061118c6000830188611109565b611199602083018761112c565b6111a66040830186611149565b6111b36060830185611168565b6111c06080830184611168565b9695505050505050565b6000815190506111d981610bc5565b92915050565b6000602082840312156111f5576111f4610bbb565b5b6000611203848285016111ca565b91505092915050565b7f4e487b7100000000000000000000000000000000000000000000000000000000600052601160045260246000fd5b600061124682610aeb565b915061125183610aeb565b92508282039050818111156112695761126861120c565b5b92915050565b7f4e487b7100000000000000000000000000000000000000000000000000000000600052603260045260246000fd5b7f4e487b7100000000000000000000000000000000000000000000000000000000600052601260045260246000fd5b60006112d882610aeb565b91506112e383610aeb565b9250826112f3576112f261129e565b5b828206905092915050565b600081905092915050565b50565b60006113196000836112fe565b915061132482611309565b600082019050919050565b600061133a8261130c565b915081905091905056fea2646970667358221220c1df6122ef02d4f04c5950f5c8b740600ec2fb29dea2518ccc1b661812e9a30864736f6c63430008130033000000000000000000000000000000000000000000000000002386f26fc10000000000000000000000000000000000000000000000000000000000000000001e0000000000000000000000008103b0a8a00be2ddc778e6e7eaa21791cd364625474e34a077df58807dbe9c96d3c009b23b3c6d0cce433e59bbf5b34f823bc56c0000000000000000000000000000000000000000000000000000000000002e79000000000000000000000000000000000000000000000000000000000007a120",
        "nonce": "0x34",
        "chainId": "0xaa36a7"
      },
      "additionalContracts": [],
      "isFixedGasLimit": false
    },
    {
      "hash": "0x7ded32720cda6a27241b522a681fea766e8105d28ab47e550758890754be1c7c",
      "transactionType": "CALL",
      "contractName": null,
      "contractAddress": "0x8103b0a8a00be2ddc778e6e7eaa21791cd364625",
      "function": "addConsumer(uint64,address)",
      "arguments": [
        "11897",
        "0xf6b8Bb2D5117A03Ed76b45F729FEFD58E5532754"
      ],
      "transaction": {
        "from": "0x6b748671f2f3b1d264f554f87b64227e0ac142ec",
        "to": "0x8103b0a8a00be2ddc778e6e7eaa21791cd364625",
        "gas": "0x21eb0",
        "value": "0x0",
        "input": "0x7341c10c0000000000000000000000000000000000000000000000000000000000002e79000000000000000000000000f6b8bb2d5117a03ed76b45f729fefd58e5532754",
        "nonce": "0x35",
        "chainId": "0xaa36a7"
      },
      "additionalContracts": [],
      "isFixedGasLimit": false
    }
  ],
  "receipts": [
    {
      "status": "0x1",
      "cumulativeGasUsed": "0xda8eaf",
      "logs": [
        {
          "address": "0x8103b0a8a00be2ddc778e6e7eaa21791cd364625",
          "topics": [
            "0x464722b4166576d3dcbba877b999bc35cf911f4eaf434b7eba68fa113951d0bf",
            "0x0000000000000000000000000000000000000000000000000000000000002e79"
          ],
          "data": "0x0000000000000000000000006b748671f2f3b1d264f554f87b64227e0ac142ec",
          "blockHash": "0xe66f23bb6dc8b3a36f180d52897d848186cefa35a268fda345ec8f996c624e43",
          "blockNumber": "0x5d5c3a",
          "transactionHash": "0xa18cac8623526d8b4081ffe23d278fae1f43c228d8a099aea86de2fbe3f307bb",
          "transactionIndex": "0x42",
          "logIndex": "0x94",
          "removed": false
        }
      ],
      "logsBloom": "0x0000000000000000000001000000000001000000000000000000000000000000010000000000000000000000000000000000000000000000000000000000000000000000000000000000000000000000000000000000080000000000000000000000000000000000000000000000000000000000000000000000000000000000000000000c000020000000000000000000000000000000000000000000000000000000000000000000000000000000000000000000000000000000000000000000000000000000200000000000000000000000000000000000000000000000000010000000000000000000000000000000000000000000000000000000000000",
      "type": "0x2",
      "transactionHash": "0xa18cac8623526d8b4081ffe23d278fae1f43c228d8a099aea86de2fbe3f307bb",
      "transactionIndex": "0x42",
      "blockHash": "0xe66f23bb6dc8b3a36f180d52897d848186cefa35a268fda345ec8f996c624e43",
      "blockNumber": "0x5d5c3a",
      "gasUsed": "0xe98a",
      "effectiveGasPrice": "0x10f91b",
      "from": "0x6b748671f2f3b1d264f554f87b64227e0ac142ec",
      "to": "0x8103b0a8a00be2ddc778e6e7eaa21791cd364625",
      "contractAddress": null
    },
    {
      "status": "0x1",
      "cumulativeGasUsed": "0xdbb8f9",
      "logs": [
        {
          "address": "0x779877a7b0d9e8603169ddbd7836e478b4624789",
          "topics": [
            "0xddf252ad1be2c89b69c2b068fc378daa952ba7f163c4a11628f55a4df523b3ef",
            "0x0000000000000000000000006b748671f2f3b1d264f554f87b64227e0ac142ec",
            "0x0000000000000000000000008103b0a8a00be2ddc778e6e7eaa21791cd364625"
          ],
          "data": "0x00000000000000000000000000000000000000000000000029a2241af62c0000",
          "blockHash": "0xe66f23bb6dc8b3a36f180d52897d848186cefa35a268fda345ec8f996c624e43",
          "blockNumber": "0x5d5c3a",
          "transactionHash": "0x8a85fa74750adfcb4a64b3b80ec3d23b2bb5383f9e70e27e92470e325168ca10",
          "transactionIndex": "0x43",
          "logIndex": "0x95",
          "removed": false
        },
        {
          "address": "0x779877a7b0d9e8603169ddbd7836e478b4624789",
          "topics": [
            "0xe19260aff97b920c7df27010903aeb9c8d2be5d310a2c67824cf3f15396e4c16",
            "0x0000000000000000000000006b748671f2f3b1d264f554f87b64227e0ac142ec",
            "0x0000000000000000000000008103b0a8a00be2ddc778e6e7eaa21791cd364625"
          ],
          "data": "0x00000000000000000000000000000000000000000000000029a2241af62c0000000000000000000000000000000000000000000000000000000000000000004000000000000000000000000000000000000000000000000000000000000000200000000000000000000000000000000000000000000000000000000000002e79",
          "blockHash": "0xe66f23bb6dc8b3a36f180d52897d848186cefa35a268fda345ec8f996c624e43",
          "blockNumber": "0x5d5c3a",
          "transactionHash": "0x8a85fa74750adfcb4a64b3b80ec3d23b2bb5383f9e70e27e92470e325168ca10",
          "transactionIndex": "0x43",
          "logIndex": "0x96",
          "removed": false
        },
        {
          "address": "0x8103b0a8a00be2ddc778e6e7eaa21791cd364625",
          "topics": [
            "0xd39ec07f4e209f627a4c427971473820dc129761ba28de8906bd56f57101d4f8",
            "0x0000000000000000000000000000000000000000000000000000000000002e79"
          ],
          "data": "0x000000000000000000000000000000000000000000000000000000000000000000000000000000000000000000000000000000000000000029a2241af62c0000",
          "blockHash": "0xe66f23bb6dc8b3a36f180d52897d848186cefa35a268fda345ec8f996c624e43",
          "blockNumber": "0x5d5c3a",
          "transactionHash": "0x8a85fa74750adfcb4a64b3b80ec3d23b2bb5383f9e70e27e92470e325168ca10",
          "transactionIndex": "0x43",
          "logIndex": "0x97",
          "removed": false
        }
      ],
      "logsBloom": "0x0000001400000000000000000000000001000000000000020000000002000000000000000000800000000000000000000000000000000000000000000000000000000000000000000000000800000000000000000000080000002000000000000000000000000000000000000000002000000000400000000000001000000000000000000c000020000000000000800010000020000000000000000000000000000000000000000000000000000200000000000000000000000400000000000000000002000000800000000000000000000000000000000100000000000000000010000000000000000000000000000000000000000000000000000000000000",
      "type": "0x2",
      "transactionHash": "0x8a85fa74750adfcb4a64b3b80ec3d23b2bb5383f9e70e27e92470e325168ca10",
      "transactionIndex": "0x43",
      "blockHash": "0xe66f23bb6dc8b3a36f180d52897d848186cefa35a268fda345ec8f996c624e43",
      "blockNumber": "0x5d5c3a",
      "gasUsed": "0x12a4a",
      "effectiveGasPrice": "0x10f91b",
      "from": "0x6b748671f2f3b1d264f554f87b64227e0ac142ec",
      "to": "0x779877a7b0d9e8603169ddbd7836e478b4624789",
      "contractAddress": null
    },
    {
      "status": "0x1",
      "cumulativeGasUsed": "0xed7b4e",
      "logs": [],
      "logsBloom": "0x00000000000000000000000000000000000000000000000000000000000000000000000000000000000000000000000000000000000000000000000000000000000000000000000000000000000000000000000000000000000000000000000000000000000000000000000000000000000000000000000000000000000000000000000000000000000000000000000000000000000000000000000000000000000000000000000000000000000000000000000000000000000000000000000000000000000000000000000000000000000000000000000000000000000000000000000000000000000000000000000000000000000000000000000000000000",
      "type": "0x2",
      "transactionHash": "0x6ba19311ca9cfd8726edc3f094edc2d028cd7b22fa25f08720175c049d95a69e",
      "transactionIndex": "0x44",
      "blockHash": "0xe66f23bb6dc8b3a36f180d52897d848186cefa35a268fda345ec8f996c624e43",
      "blockNumber": "0x5d5c3a",
      "gasUsed": "0x11c255",
      "effectiveGasPrice": "0x10f91b",
      "from": "0x6b748671f2f3b1d264f554f87b64227e0ac142ec",
      "to": null,
      "contractAddress": "0xf6b8bb2d5117a03ed76b45f729fefd58e5532754"
    },
    {
      "status": "0x1",
      "cumulativeGasUsed": "0xeeee60",
      "logs": [
        {
          "address": "0x8103b0a8a00be2ddc778e6e7eaa21791cd364625",
          "topics": [
            "0x43dc749a04ac8fb825cbd514f7c0e13f13bc6f2ee66043b76629d51776cff8e0",
            "0x0000000000000000000000000000000000000000000000000000000000002e79"
          ],
          "data": "0x000000000000000000000000f6b8bb2d5117a03ed76b45f729fefd58e5532754",
          "blockHash": "0xe66f23bb6dc8b3a36f180d52897d848186cefa35a268fda345ec8f996c624e43",
          "blockNumber": "0x5d5c3a",
          "transactionHash": "0x7ded32720cda6a27241b522a681fea766e8105d28ab47e550758890754be1c7c",
          "transactionIndex": "0x45",
          "logIndex": "0x98",
          "removed": false
        }
      ],
      "logsBloom": "0x0000000000000000000000000000000001000000000000000000000000000000000000000000000000000000000000000000000000000000000000000000000000000000000000000000000000000000000000000000080000000000000000000000000000008000000000000000000000000000000000000000000000000000000000000c000020000000000000000000000000000000000000000000000000000000000000000000000080000000000000000000000000000000000000000000000000000000000000000000000000000000000000000000020000000000000010000000000000000000000000000000000000000000000000000000000000",
      "type": "0x2",
      "transactionHash": "0x7ded32720cda6a27241b522a681fea766e8105d28ab47e550758890754be1c7c",
      "transactionIndex": "0x45",
      "blockHash": "0xe66f23bb6dc8b3a36f180d52897d848186cefa35a268fda345ec8f996c624e43",
      "blockNumber": "0x5d5c3a",
      "gasUsed": "0x17312",
      "effectiveGasPrice": "0x10f91b",
      "from": "0x6b748671f2f3b1d264f554f87b64227e0ac142ec",
      "to": "0x8103b0a8a00be2ddc778e6e7eaa21791cd364625",
      "contractAddress": null
    }
  ],
  "libraries": [],
  "pending": [],
  "returns": {
    "1": {
      "internal_type": "contract HelperConfig",
      "value": "0xC7f2Cf4845C6db0e1a1e91ED41Bcd0FcC1b0E141"
    },
    "0": {
      "internal_type": "contract Raffle",
      "value": "0xf6b8Bb2D5117A03Ed76b45F729FEFD58E5532754"
    }
  },
  "timestamp": 1718522849,
  "chain": 11155111,
  "commit": "9bbbd03"
}